:0400000080311A2809
:100008007E1480310B1B09280A280B281828210088
:10001800911C0F28102818282000911C1428152836
:1000280018288031602080317E10090080311C281A
:10003800F001F101F2017E10200080314828FF30E4
:1000480024008C0022008C0125008C01FF30210047
:100058008C0023008C01FF3024008D0022008D01CC
:1000680025008D01FF3021008D0023008D01FE3019
:1000780024008E0022008E0125008E01FE30210012
:100088008E0023008E010800803177208031803176
:100098002320803180318220803180316E20803170
:1000A80080317F2080317103031D5B285C2857282D
:1000B800F101572880311A280130F3007308F2073C
:1000C8000A307202031C69286A286D28F101F10AB6
:1000D800F201080001302900970060309500960170
:1000E800210091140800F03021009B001C1F7D287E
:0E00F8007E287A2808000B178B1708000800D6
:00000001FF
